{
  "_format": "hh-sol-artifact-1",
  "contractName": "Staking",
  "sourceName": "contracts/Staking.sol",
  "abi": [
    {
      "inputs": [
        {
          "internalType": "address",
          "name": "stakingToken",
          "type": "address"
        }
      ],
      "stateMutability": "nonpayable",
      "type": "constructor"
    },
    {
      "inputs": [],
      "name": "Staking__TransferFailed",
      "type": "error"
    },
    {
      "inputs": [
        {
          "internalType": "uint256",
          "name": "amount",
          "type": "uint256"
        }
      ],
      "name": "stake",
      "outputs": [],
      "stateMutability": "nonpayable",
      "type": "function"
    },
    {
      "inputs": [
        {
          "internalType": "address",
          "name": "",
          "type": "address"
        }
      ],
      "name": "stored_balances",
      "outputs": [
        {
          "internalType": "uint256",
          "name": "",
          "type": "uint256"
        }
      ],
      "stateMutability": "view",
      "type": "function"
    },
    {
      "inputs": [],
      "name": "stored_stakingToken",
      "outputs": [
        {
          "internalType": "contract IERC20",
          "name": "",
          "type": "address"
        }
      ],
      "stateMutability": "view",
      "type": "function"
    },
    {
      "inputs": [],
      "name": "stored_totalSupply",
      "outputs": [
        {
          "internalType": "uint256",
          "name": "",
          "type": "uint256"
        }
      ],
      "stateMutability": "view",
      "type": "function"
    }
  ],
  "bytecode": "0x608060405234801561001057600080fd5b506040516106a63803806106a68339818101604052810190610032919061008d565b806000806101000a81548173ffffffffffffffffffffffffffffffffffffffff021916908373ffffffffffffffffffffffffffffffffffffffff16021790555050610108565b600081519050610087816100f1565b92915050565b6000602082840312156100a3576100a26100ec565b5b60006100b184828501610078565b91505092915050565b60006100c5826100cc565b9050919050565b600073ffffffffffffffffffffffffffffffffffffffff82169050919050565b600080fd5b6100fa816100ba565b811461010557600080fd5b50565b61058f806101176000396000f3fe608060405234801561001057600080fd5b506004361061004c5760003560e01c80631641fef1146100515780631872688b1461006f57806370786e8c1461008d578063a694fc3a146100bd575b600080fd5b6100596100d9565b60405161006691906103f1565b60405180910390f35b6100776100df565b60405161008491906103d6565b60405180910390f35b6100a760048036038101906100a291906102eb565b610103565b6040516100b491906103f1565b60405180910390f35b6100d760048036038101906100d29190610345565b61011b565b005b60025481565b60008054906101000a900473ffffffffffffffffffffffffffffffffffffffff1681565b60016020528060005260406000206000915090505481565b80600160003373ffffffffffffffffffffffffffffffffffffffff1673ffffffffffffffffffffffffffffffffffffffff16815260200190815260200160002054610166919061040c565b600160003373ffffffffffffffffffffffffffffffffffffffff1673ffffffffffffffffffffffffffffffffffffffff16815260200190815260200160002081905550806002546101b7919061040c565b60028190555060008060009054906101000a900473ffffffffffffffffffffffffffffffffffffffff1673ffffffffffffffffffffffffffffffffffffffff166323b872dd3330856040518463ffffffff1660e01b815260040161021d9392919061039f565b602060405180830381600087803b15801561023757600080fd5b505af115801561024b573d6000803e3d6000fd5b505050506040513d601f19601f8201168201806040525081019061026f9190610318565b9050806102a8576040517feb4c684700000000000000000000000000000000000000000000000000000000815260040160405180910390fd5b5050565b6000813590506102bb81610514565b92915050565b6000815190506102d08161052b565b92915050565b6000813590506102e581610542565b92915050565b6000602082840312156103015761030061050f565b5b600061030f848285016102ac565b91505092915050565b60006020828403121561032e5761032d61050f565b5b600061033c848285016102c1565b91505092915050565b60006020828403121561035b5761035a61050f565b5b6000610369848285016102d6565b91505092915050565b61037b81610462565b82525050565b61038a816104aa565b82525050565b610399816104a0565b82525050565b60006060820190506103b46000830186610372565b6103c16020830185610372565b6103ce6040830184610390565b949350505050565b60006020820190506103eb6000830184610381565b92915050565b60006020820190506104066000830184610390565b92915050565b6000610417826104a0565b9150610422836104a0565b9250827fffffffffffffffffffffffffffffffffffffffffffffffffffffffffffffffff03821115610457576104566104e0565b5b828201905092915050565b600061046d82610480565b9050919050565b60008115159050919050565b600073ffffffffffffffffffffffffffffffffffffffff82169050919050565b6000819050919050565b60006104b5826104bc565b9050919050565b60006104c7826104ce565b9050919050565b60006104d982610480565b9050919050565b7f4e487b7100000000000000000000000000000000000000000000000000000000600052601160045260246000fd5b600080fd5b61051d81610462565b811461052857600080fd5b50565b61053481610474565b811461053f57600080fd5b50565b61054b816104a0565b811461055657600080fd5b5056fea26469706673582212202b160d59cd8bc775f5de168ff07c876f4d17bee488ea50436b55b65331928eae64736f6c63430008070033",
  "linkReferences": {},
  "deployedLinkReferences": {}
}