{
  "_format": "hh-sol-artifact-1",
  "contractName": "Staking",
  "sourceName": "contracts/Staking.sol",
  "abi": [
    {
      "inputs": [
        {
          "internalType": "address",
          "name": "stakingToken",
          "type": "address"
        },
        {
          "internalType": "address",
          "name": "rewardsToken",
          "type": "address"
        }
      ],
      "stateMutability": "nonpayable",
      "type": "constructor"
    },
    {
      "inputs": [],
      "name": "Staking_NeedsMoreThanZero",
      "type": "error"
    },
    {
      "inputs": [],
      "name": "Staking__TransferFailed",
      "type": "error"
    },
    {
      "inputs": [],
      "name": "REWARD_RATE",
      "outputs": [
        {
          "internalType": "uint256",
          "name": "",
          "type": "uint256"
        }
      ],
      "stateMutability": "view",
      "type": "function"
    },
    {
      "inputs": [],
      "name": "claimReward",
      "outputs": [],
      "stateMutability": "nonpayable",
      "type": "function"
    },
    {
      "inputs": [
        {
          "internalType": "address",
          "name": "account",
          "type": "address"
        }
      ],
      "name": "earned",
      "outputs": [
        {
          "internalType": "uint256",
          "name": "",
          "type": "uint256"
        }
      ],
      "stateMutability": "view",
      "type": "function"
    },
    {
      "inputs": [],
      "name": "rewardPerToken",
      "outputs": [
        {
          "internalType": "uint256",
          "name": "",
          "type": "uint256"
        }
      ],
      "stateMutability": "view",
      "type": "function"
    },
    {
      "inputs": [
        {
          "internalType": "address",
          "name": "",
          "type": "address"
        }
      ],
      "name": "s_balances",
      "outputs": [
        {
          "internalType": "uint256",
          "name": "",
          "type": "uint256"
        }
      ],
      "stateMutability": "view",
      "type": "function"
    },
    {
      "inputs": [],
      "name": "s_lastUpdateTime",
      "outputs": [
        {
          "internalType": "uint256",
          "name": "",
          "type": "uint256"
        }
      ],
      "stateMutability": "view",
      "type": "function"
    },
    {
      "inputs": [],
      "name": "s_rewardPerTokenStored",
      "outputs": [
        {
          "internalType": "uint256",
          "name": "",
          "type": "uint256"
        }
      ],
      "stateMutability": "view",
      "type": "function"
    },
    {
      "inputs": [
        {
          "internalType": "address",
          "name": "",
          "type": "address"
        }
      ],
      "name": "s_rewards",
      "outputs": [
        {
          "internalType": "uint256",
          "name": "",
          "type": "uint256"
        }
      ],
      "stateMutability": "view",
      "type": "function"
    },
    {
      "inputs": [],
      "name": "s_rewardsToken",
      "outputs": [
        {
          "internalType": "contract IERC20",
          "name": "",
          "type": "address"
        }
      ],
      "stateMutability": "view",
      "type": "function"
    },
    {
      "inputs": [],
      "name": "s_stakingToken",
      "outputs": [
        {
          "internalType": "contract IERC20",
          "name": "",
          "type": "address"
        }
      ],
      "stateMutability": "view",
      "type": "function"
    },
    {
      "inputs": [],
      "name": "s_totalSupply",
      "outputs": [
        {
          "internalType": "uint256",
          "name": "",
          "type": "uint256"
        }
      ],
      "stateMutability": "view",
      "type": "function"
    },
    {
      "inputs": [
        {
          "internalType": "address",
          "name": "",
          "type": "address"
        }
      ],
      "name": "s_userRewardPerTokenPaid",
      "outputs": [
        {
          "internalType": "uint256",
          "name": "",
          "type": "uint256"
        }
      ],
      "stateMutability": "view",
      "type": "function"
    },
    {
      "inputs": [
        {
          "internalType": "uint256",
          "name": "amount",
          "type": "uint256"
        }
      ],
      "name": "stake",
      "outputs": [],
      "stateMutability": "nonpayable",
      "type": "function"
    },
    {
      "inputs": [
        {
          "internalType": "uint256",
          "name": "amount",
          "type": "uint256"
        }
      ],
      "name": "withdraw",
      "outputs": [],
      "stateMutability": "nonpayable",
      "type": "function"
    }
  ],
  "bytecode": "0x608060405260646002553480156200001657600080fd5b50604051620011363803806200113683398181016040528101906200003c9190620000dc565b816000806101000a81548173ffffffffffffffffffffffffffffffffffffffff021916908373ffffffffffffffffffffffffffffffffffffffff16021790555080600160006101000a81548173ffffffffffffffffffffffffffffffffffffffff021916908373ffffffffffffffffffffffffffffffffffffffff160217905550505062000176565b600081519050620000d6816200015c565b92915050565b60008060408385031215620000f657620000f562000157565b5b60006200010685828601620000c5565b92505060206200011985828601620000c5565b9150509250929050565b6000620001308262000137565b9050919050565b600073ffffffffffffffffffffffffffffffffffffffff82169050919050565b600080fd5b620001678162000123565b81146200017357600080fd5b50565b610fb080620001866000396000f3fe608060405234801561001057600080fd5b50600436106100e95760003560e01c8063a694fc3a1161008c578063b88a802f11610066578063b88a802f1461023a578063bea0815114610244578063cd3daf9d14610274578063f245ace414610292576100e9565b8063a694fc3a146101d0578063ab32eb69146101ec578063adca9b721461021c576100e9565b8063304ac91b116100c8578063304ac91b146101585780635997bb37146101765780636a74a0fc146101945780636aa0838f146101b2576100e9565b80628cc262146100ee5780630bd21c561461011e5780632e1a7d4d1461013c575b600080fd5b61010860048036038101906101039190610bf5565b6102c2565b6040516101159190610d24565b60405180910390f35b6101266103e1565b6040516101339190610d09565b60405180910390f35b61015660048036038101906101519190610c4f565b610407565b005b61016061067c565b60405161016d9190610d24565b60405180910390f35b61017e610682565b60405161018b9190610d24565b60405180910390f35b61019c610688565b6040516101a99190610d24565b60405180910390f35b6101ba61068e565b6040516101c79190610d24565b60405180910390f35b6101ea60048036038101906101e59190610c4f565b610694565b005b61020660048036038101906102019190610bf5565b61090b565b6040516102139190610d24565b60405180910390f35b610224610923565b6040516102319190610d09565b60405180910390f35b610242610947565b005b61025e60048036038101906102599190610bf5565b610b22565b60405161026b9190610d24565b60405180910390f35b61027c610b3a565b6040516102899190610d24565b60405180910390f35b6102ac60048036038101906102a79190610bf5565b610b9e565b6040516102b99190610d24565b60405180910390f35b600080600660008473ffffffffffffffffffffffffffffffffffffffff1673ffffffffffffffffffffffffffffffffffffffff1681526020019081526020016000205490506000600760008573ffffffffffffffffffffffffffffffffffffffff1673ffffffffffffffffffffffffffffffffffffffff1681526020019081526020016000205490506000610355610b3a565b90506000600860008773ffffffffffffffffffffffffffffffffffffffff1673ffffffffffffffffffffffffffffffffffffffff168152602001908152602001600020549050600081670de0b6b3a764000085856103b39190610e20565b876103be9190610dc6565b6103c89190610d95565b6103d29190610d3f565b90508095505050505050919050565b600160009054906101000a900473ffffffffffffffffffffffffffffffffffffffff1681565b33610410610b3a565b60048190555042600581905550610426816102c2565b600860008373ffffffffffffffffffffffffffffffffffffffff1673ffffffffffffffffffffffffffffffffffffffff16815260200190815260200160002081905550600454600760008373ffffffffffffffffffffffffffffffffffffffff1673ffffffffffffffffffffffffffffffffffffffff168152602001908152602001600020819055508160008114156104eb576040517f5c6c0f8400000000000000000000000000000000000000000000000000000000815260040160405180910390fd5b82600660003373ffffffffffffffffffffffffffffffffffffffff1673ffffffffffffffffffffffffffffffffffffffff168152602001908152602001600020546105369190610e20565b600660003373ffffffffffffffffffffffffffffffffffffffff1673ffffffffffffffffffffffffffffffffffffffff16815260200190815260200160002081905550826003546105879190610e20565b60038190555060008060009054906101000a900473ffffffffffffffffffffffffffffffffffffffff1673ffffffffffffffffffffffffffffffffffffffff1663a9059cbb33866040518363ffffffff1660e01b81526004016105eb929190610ce0565b602060405180830381600087803b15801561060557600080fd5b505af1158015610619573d6000803e3d6000fd5b505050506040513d601f19601f8201168201806040525081019061063d9190610c22565b905080610676576040517feb4c684700000000000000000000000000000000000000000000000000000000815260040160405180910390fd5b50505050565b60045481565b60025481565b60035481565b60055481565b3361069d610b3a565b600481905550426005819055506106b3816102c2565b600860008373ffffffffffffffffffffffffffffffffffffffff1673ffffffffffffffffffffffffffffffffffffffff16815260200190815260200160002081905550600454600760008373ffffffffffffffffffffffffffffffffffffffff1673ffffffffffffffffffffffffffffffffffffffff16815260200190815260200160002081905550816000811415610778576040517f5c6c0f8400000000000000000000000000000000000000000000000000000000815260040160405180910390fd5b82600660003373ffffffffffffffffffffffffffffffffffffffff1673ffffffffffffffffffffffffffffffffffffffff168152602001908152602001600020546107c39190610d3f565b600660003373ffffffffffffffffffffffffffffffffffffffff1673ffffffffffffffffffffffffffffffffffffffff16815260200190815260200160002081905550826003546108149190610d3f565b60038190555060008060009054906101000a900473ffffffffffffffffffffffffffffffffffffffff1673ffffffffffffffffffffffffffffffffffffffff166323b872dd3330876040518463ffffffff1660e01b815260040161087a93929190610ca9565b602060405180830381600087803b15801561089457600080fd5b505af11580156108a8573d6000803e3d6000fd5b505050506040513d601f19601f820116820180604052508101906108cc9190610c22565b905080610905576040517feb4c684700000000000000000000000000000000000000000000000000000000815260040160405180910390fd5b50505050565b60066020528060005260406000206000915090505481565b60008054906101000a900473ffffffffffffffffffffffffffffffffffffffff1681565b33610950610b3a565b60048190555042600581905550610966816102c2565b600860008373ffffffffffffffffffffffffffffffffffffffff1673ffffffffffffffffffffffffffffffffffffffff16815260200190815260200160002081905550600454600760008373ffffffffffffffffffffffffffffffffffffffff1673ffffffffffffffffffffffffffffffffffffffff168152602001908152602001600020819055506000600860003373ffffffffffffffffffffffffffffffffffffffff1673ffffffffffffffffffffffffffffffffffffffff1681526020019081526020016000205490506000600160009054906101000a900473ffffffffffffffffffffffffffffffffffffffff1673ffffffffffffffffffffffffffffffffffffffff1663a9059cbb33846040518363ffffffff1660e01b8152600401610a92929190610ce0565b602060405180830381600087803b158015610aac57600080fd5b505af1158015610ac0573d6000803e3d6000fd5b505050506040513d601f19601f82011682018060405250810190610ae49190610c22565b905080610b1d576040517feb4c684700000000000000000000000000000000000000000000000000000000815260040160405180910390fd5b505050565b60086020528060005260406000206000915090505481565b6000806003541415610b50576004549050610b9b565b600354670de0b6b3a764000060025460055442610b6d9190610e20565b610b779190610dc6565b610b819190610dc6565b610b8b9190610d95565b600454610b989190610d3f565b90505b90565b60076020528060005260406000206000915090505481565b600081359050610bc581610f35565b92915050565b600081519050610bda81610f4c565b92915050565b600081359050610bef81610f63565b92915050565b600060208284031215610c0b57610c0a610f30565b5b6000610c1984828501610bb6565b91505092915050565b600060208284031215610c3857610c37610f30565b5b6000610c4684828501610bcb565b91505092915050565b600060208284031215610c6557610c64610f30565b5b6000610c7384828501610be0565b91505092915050565b610c8581610e54565b82525050565b610c9481610e9c565b82525050565b610ca381610e92565b82525050565b6000606082019050610cbe6000830186610c7c565b610ccb6020830185610c7c565b610cd86040830184610c9a565b949350505050565b6000604082019050610cf56000830185610c7c565b610d026020830184610c9a565b9392505050565b6000602082019050610d1e6000830184610c8b565b92915050565b6000602082019050610d396000830184610c9a565b92915050565b6000610d4a82610e92565b9150610d5583610e92565b9250827fffffffffffffffffffffffffffffffffffffffffffffffffffffffffffffffff03821115610d8a57610d89610ed2565b5b828201905092915050565b6000610da082610e92565b9150610dab83610e92565b925082610dbb57610dba610f01565b5b828204905092915050565b6000610dd182610e92565b9150610ddc83610e92565b9250817fffffffffffffffffffffffffffffffffffffffffffffffffffffffffffffffff0483118215151615610e1557610e14610ed2565b5b828202905092915050565b6000610e2b82610e92565b9150610e3683610e92565b925082821015610e4957610e48610ed2565b5b828203905092915050565b6000610e5f82610e72565b9050919050565b60008115159050919050565b600073ffffffffffffffffffffffffffffffffffffffff82169050919050565b6000819050919050565b6000610ea782610eae565b9050919050565b6000610eb982610ec0565b9050919050565b6000610ecb82610e72565b9050919050565b7f4e487b7100000000000000000000000000000000000000000000000000000000600052601160045260246000fd5b7f4e487b7100000000000000000000000000000000000000000000000000000000600052601260045260246000fd5b600080fd5b610f3e81610e54565b8114610f4957600080fd5b50565b610f5581610e66565b8114610f6057600080fd5b50565b610f6c81610e92565b8114610f7757600080fd5b5056fea264697066735822122011ba4789234522258504df4019498942062da7b3c31b7e5af52d92bd9c930d4864736f6c63430008070033",
  "linkReferences": {},
  "deployedLinkReferences": {}
}